{
  "contractName": "Ebay",
  "abi": [
    {
      "inputs": [
        {
          "internalType": "string",
          "name": "_name",
          "type": "string"
        },
        {
          "internalType": "string",
          "name": "_description",
          "type": "string"
        },
        {
          "internalType": "uint256",
          "name": "_minimumPrice",
          "type": "uint256"
        },
        {
          "internalType": "uint256",
          "name": "_duration",
          "type": "uint256"
        }
      ],
      "name": "createAuction",
      "outputs": [],
      "stateMutability": "nonpayable",
      "type": "function"
    },
    {
      "inputs": [
        {
          "internalType": "uint256",
          "name": "_auctionId",
          "type": "uint256"
        }
      ],
      "name": "createOffer",
      "outputs": [],
      "stateMutability": "payable",
      "type": "function",
      "payable": true
    },
    {
      "inputs": [
        {
          "internalType": "uint256",
          "name": "_auctionId",
          "type": "uint256"
        }
      ],
      "name": "trade",
      "outputs": [],
      "stateMutability": "nonpayable",
      "type": "function"
    },
    {
      "inputs": [],
      "name": "getAuctions",
      "outputs": [
        {
          "components": [
            {
              "internalType": "uint256",
              "name": "id",
              "type": "uint256"
            },
            {
              "internalType": "address payable",
              "name": "seller",
              "type": "address"
            },
            {
              "internalType": "string",
              "name": "auctionName",
              "type": "string"
            },
            {
              "internalType": "string",
              "name": "description",
              "type": "string"
            },
            {
              "internalType": "uint256",
              "name": "minimumPrice",
              "type": "uint256"
            },
            {
              "internalType": "uint256",
              "name": "endDate",
              "type": "uint256"
            },
            {
              "internalType": "uint256",
              "name": "bestOfferId",
              "type": "uint256"
            },
            {
              "internalType": "uint256[]",
              "name": "offerIds",
              "type": "uint256[]"
            }
          ],
          "internalType": "struct Ebay.Auction[]",
          "name": "",
          "type": "tuple[]"
        }
      ],
      "stateMutability": "view",
      "type": "function",
      "constant": true
    },
    {
      "inputs": [
        {
          "internalType": "address",
          "name": "_user",
          "type": "address"
        }
      ],
      "name": "getUserAuctions",
      "outputs": [
        {
          "components": [
            {
              "internalType": "uint256",
              "name": "id",
              "type": "uint256"
            },
            {
              "internalType": "address payable",
              "name": "seller",
              "type": "address"
            },
            {
              "internalType": "string",
              "name": "auctionName",
              "type": "string"
            },
            {
              "internalType": "string",
              "name": "description",
              "type": "string"
            },
            {
              "internalType": "uint256",
              "name": "minimumPrice",
              "type": "uint256"
            },
            {
              "internalType": "uint256",
              "name": "endDate",
              "type": "uint256"
            },
            {
              "internalType": "uint256",
              "name": "bestOfferId",
              "type": "uint256"
            },
            {
              "internalType": "uint256[]",
              "name": "offerIds",
              "type": "uint256[]"
            }
          ],
          "internalType": "struct Ebay.Auction[]",
          "name": "",
          "type": "tuple[]"
        }
      ],
      "stateMutability": "view",
      "type": "function",
      "constant": true
    },
    {
      "inputs": [
        {
          "internalType": "address",
          "name": "_user",
          "type": "address"
        }
      ],
      "name": "getUserOffers",
      "outputs": [
        {
          "components": [
            {
              "internalType": "uint256",
              "name": "id",
              "type": "uint256"
            },
            {
              "internalType": "uint256",
              "name": "auctionId",
              "type": "uint256"
            },
            {
              "internalType": "address payable",
              "name": "buyer",
              "type": "address"
            },
            {
              "internalType": "uint256",
              "name": "price",
              "type": "uint256"
            }
          ],
          "internalType": "struct Ebay.Offer[]",
          "name": "",
          "type": "tuple[]"
        }
      ],
      "stateMutability": "view",
      "type": "function",
      "constant": true
    }
  ],
  "bytecode": "0x60806040526001600455600160055534801561001a57600080fd5b50611e848061002a6000396000f3fe6080604052600436106100555760003560e01c806361e2db551461005a578063661d2c2c14610083578063a269993d146100c0578063d7c06919146100dc578063df1dd82614610107578063ff3ad0b414610130575b600080fd5b34801561006657600080fd5b50610081600480360381019061007c9190611498565b61016d565b005b34801561008f57600080fd5b506100aa60048036038101906100a5919061146f565b6104c2565b6040516100b7919061192f565b60405180910390f35b6100da60048036038101906100d59190611533565b6106d5565b005b3480156100e857600080fd5b506100f1610969565b6040516100fe919061190d565b60405180910390f35b34801561011357600080fd5b5061012e60048036038101906101299190611533565b610c97565b005b34801561013c57600080fd5b506101576004803603810190610152919061146f565b610ed9565b604051610164919061190d565b60405180910390f35b600082116101b0576040517f08c379a00000000000000000000000000000000000000000000000000000000081526004016101a790611971565b60405180910390fd5b62015180811180156101c45750620d2f0081105b610203576040517f08c379a00000000000000000000000000000000000000000000000000000000081526004016101fa906119d1565b60405180910390fd5b60008067ffffffffffffffff811115610245577f4e487b7100000000000000000000000000000000000000000000000000000000600052604160045260246000fd5b6040519080825280602002602001820160405280156102735781602001602082028036833780820191505090505b50905060405180610100016040528060045481526020013373ffffffffffffffffffffffffffffffffffffffff16815260200188888080601f016020809104026020016040519081016040528093929190818152602001838380828437600081840152601f19601f82011690508083019250505050505050815260200186868080601f016020809104026020016040519081016040528093929190818152602001838380828437600081840152601f19601f820116905080830192505050505050508152602001848152602001834261034c9190611ae9565b8152602001600081526020018281525060008060045481526020019081526020016000206000820151816000015560208201518160010160006101000a81548173ffffffffffffffffffffffffffffffffffffffff021916908373ffffffffffffffffffffffffffffffffffffffff16021790555060408201518160020190805190602001906103dd929190611272565b5060608201518160030190805190602001906103fa929190611272565b506080820151816004015560a0820151816005015560c0820151816006015560e08201518160070190805190602001906104359291906112f8565b50905050600260003373ffffffffffffffffffffffffffffffffffffffff1673ffffffffffffffffffffffffffffffffffffffff1681526020019081526020016000206004549080600181540180825580915050600190039060005260206000200160009091909190915055600460008154809291906104b490611c26565b919050555050505050505050565b60606000600360008473ffffffffffffffffffffffffffffffffffffffff1673ffffffffffffffffffffffffffffffffffffffff16815260200190815260200160002090506000818054905067ffffffffffffffff81111561054d577f4e487b7100000000000000000000000000000000000000000000000000000000600052604160045260246000fd5b60405190808252806020026020018201604052801561058657816020015b610573611345565b81526020019060019003908161056b5790505b50905060005b82805490508110156106ca5760008382815481106105d3577f4e487b7100000000000000000000000000000000000000000000000000000000600052603260045260246000fd5b906000526020600020015490506001600082815260200190815260200160002060405180608001604052908160008201548152602001600182015481526020016002820160009054906101000a900473ffffffffffffffffffffffffffffffffffffffff1673ffffffffffffffffffffffffffffffffffffffff1673ffffffffffffffffffffffffffffffffffffffff1681526020016003820154815250508383815181106106ab577f4e487b7100000000000000000000000000000000000000000000000000000000600052603260045260246000fd5b60200260200101819052505080806106c290611c26565b91505061058c565b508092505050919050565b806000811180156106e7575060045481105b610726576040517f08c379a000000000000000000000000000000000000000000000000000000000815260040161071d906119b1565b60405180910390fd5b600080600084815260200190815260200160002090506000600160008360060154815260200190815260200160002090508160050154421061079d576040517f08c379a0000000000000000000000000000000000000000000000000000000008152600401610794906119f1565b60405180910390fd5b816004015434101580156107b45750806003015434115b6107f3576040517f08c379a00000000000000000000000000000000000000000000000000000000081526004016107ea90611991565b60405180910390fd5b60055482600601819055508160070160055490806001815401808255809150506001900390600052602060002001600090919091909150556040518060800160405280600554815260200160045481526020013373ffffffffffffffffffffffffffffffffffffffff16815260200134815250600160006005548152602001908152602001600020600082015181600001556020820151816001015560408201518160020160006101000a81548173ffffffffffffffffffffffffffffffffffffffff021916908373ffffffffffffffffffffffffffffffffffffffff16021790555060608201518160030155905050600360003373ffffffffffffffffffffffffffffffffffffffff1673ffffffffffffffffffffffffffffffffffffffff16815260200190815260200160002060055490806001815401808255809150506001900390600052602060002001600090919091909150556005600081548092919061095e90611c26565b919050555050505050565b60606000600160045461097c9190611b3f565b67ffffffffffffffff8111156109bb577f4e487b7100000000000000000000000000000000000000000000000000000000600052604160045260246000fd5b6040519080825280602002602001820160405280156109f457816020015b6109e1611383565b8152602001906001900390816109d95790505b5090506000600190505b6001600454610a0d9190611ae9565b811015610c8f5760008082815260200190815260200160002060405180610100016040529081600082015481526020016001820160009054906101000a900473ffffffffffffffffffffffffffffffffffffffff1673ffffffffffffffffffffffffffffffffffffffff1673ffffffffffffffffffffffffffffffffffffffff168152602001600282018054610aa290611bf4565b80601f0160208091040260200160405190810160405280929190818152602001828054610ace90611bf4565b8015610b1b5780601f10610af057610100808354040283529160200191610b1b565b820191906000526020600020905b815481529060010190602001808311610afe57829003601f168201915b50505050508152602001600382018054610b3490611bf4565b80601f0160208091040260200160405190810160405280929190818152602001828054610b6090611bf4565b8015610bad5780601f10610b8257610100808354040283529160200191610bad565b820191906000526020600020905b815481529060010190602001808311610b9057829003601f168201915b5050505050815260200160048201548152602001600582015481526020016006820154815260200160078201805480602002602001604051908101604052809291908181526020018280548015610c2357602002820191906000526020600020905b815481526020019060010190808311610c0f575b50505050508152505082600183610c3a9190611b3f565b81518110610c71577f4e487b7100000000000000000000000000000000000000000000000000000000600052603260045260246000fd5b60200260200101819052508080610c8790611c26565b9150506109fe565b508091505090565b80600081118015610ca9575060045481105b610ce8576040517f08c379a0000000000000000000000000000000000000000000000000000000008152600401610cdf906119b1565b60405180910390fd5b6000806000848152602001908152602001600020905060006001600083600601548152602001908152602001600020905081600501544211610d5f576040517f08c379a0000000000000000000000000000000000000000000000000000000008152600401610d5690611951565b60405180910390fd5b60005b8260070180549050811015610e63576000836007018281548110610daf577f4e487b7100000000000000000000000000000000000000000000000000000000600052603260045260246000fd5b9060005260206000200154905083600601548114610e4f5760006001600083815260200190815260200160002090508060020160009054906101000a900473ffffffffffffffffffffffffffffffffffffffff1673ffffffffffffffffffffffffffffffffffffffff166108fc82600301549081150290604051600060405180830381858888f19350505050158015610e4c573d6000803e3d6000fd5b50505b508080610e5b90611c26565b915050610d62565b508160010160009054906101000a900473ffffffffffffffffffffffffffffffffffffffff1673ffffffffffffffffffffffffffffffffffffffff166108fc82600301549081150290604051600060405180830381858888f19350505050158015610ed2573d6000803e3d6000fd5b5050505050565b60606000600260008473ffffffffffffffffffffffffffffffffffffffff1673ffffffffffffffffffffffffffffffffffffffff16815260200190815260200160002090506000818054905067ffffffffffffffff811115610f64577f4e487b7100000000000000000000000000000000000000000000000000000000600052604160045260246000fd5b604051908082528060200260200182016040528015610f9d57816020015b610f8a611383565b815260200190600190039081610f825790505b50905060005b8280549050811015611267576000838281548110610fea577f4e487b7100000000000000000000000000000000000000000000000000000000600052603260045260246000fd5b9060005260206000200154905060008082815260200190815260200160002060405180610100016040529081600082015481526020016001820160009054906101000a900473ffffffffffffffffffffffffffffffffffffffff1673ffffffffffffffffffffffffffffffffffffffff1673ffffffffffffffffffffffffffffffffffffffff16815260200160028201805461108590611bf4565b80601f01602080910402602001604051908101604052809291908181526020018280546110b190611bf4565b80156110fe5780601f106110d3576101008083540402835291602001916110fe565b820191906000526020600020905b8154815290600101906020018083116110e157829003601f168201915b5050505050815260200160038201805461111790611bf4565b80601f016020809104026020016040519081016040528092919081815260200182805461114390611bf4565b80156111905780601f1061116557610100808354040283529160200191611190565b820191906000526020600020905b81548152906001019060200180831161117357829003601f168201915b505050505081526020016004820154815260200160058201548152602001600682015481526020016007820180548060200260200160405190810160405280929190818152602001828054801561120657602002820191906000526020600020905b8154815260200190600101908083116111f2575b505050505081525050838381518110611248577f4e487b7100000000000000000000000000000000000000000000000000000000600052603260045260246000fd5b602002602001018190525050808061125f90611c26565b915050610fa3565b508092505050919050565b82805461127e90611bf4565b90600052602060002090601f0160209004810192826112a057600085556112e7565b82601f106112b957805160ff19168380011785556112e7565b828001600101855582156112e7579182015b828111156112e65782518255916020019190600101906112cb565b5b5090506112f491906113de565b5090565b828054828255906000526020600020908101928215611334579160200282015b82811115611333578251825591602001919060010190611318565b5b50905061134191906113de565b5090565b60405180608001604052806000815260200160008152602001600073ffffffffffffffffffffffffffffffffffffffff168152602001600081525090565b60405180610100016040528060008152602001600073ffffffffffffffffffffffffffffffffffffffff1681526020016060815260200160608152602001600081526020016000815260200160008152602001606081525090565b5b808211156113f75760008160009055506001016113df565b5090565b60008135905061140a81611e20565b92915050565b60008083601f84011261142257600080fd5b8235905067ffffffffffffffff81111561143b57600080fd5b60208301915083600182028301111561145357600080fd5b9250929050565b60008135905061146981611e37565b92915050565b60006020828403121561148157600080fd5b600061148f848285016113fb565b91505092915050565b600080600080600080608087890312156114b157600080fd5b600087013567ffffffffffffffff8111156114cb57600080fd5b6114d789828a01611410565b9650965050602087013567ffffffffffffffff8111156114f657600080fd5b61150289828a01611410565b9450945050604061151589828a0161145a565b925050606061152689828a0161145a565b9150509295509295509295565b60006020828403121561154557600080fd5b60006115538482850161145a565b91505092915050565b600061156883836117eb565b905092915050565b600061157c83836118a9565b60808301905092915050565b600061159483836118fe565b60208301905092915050565b6115a981611b85565b82525050565b60006115ba82611a41565b6115c48185611a94565b9350836020820285016115d685611a11565b8060005b8581101561161257848403895281516115f3858261155c565b94506115fe83611a6d565b925060208a019950506001810190506115da565b50829750879550505050505092915050565b600061162f82611a4c565b6116398185611aa5565b935061164483611a21565b8060005b8381101561167557815161165c8882611570565b975061166783611a7a565b925050600181019050611648565b5085935050505092915050565b600061168d82611a57565b6116978185611ab6565b93506116a283611a31565b8060005b838110156116d35781516116ba8882611588565b97506116c583611a87565b9250506001810190506116a6565b5085935050505092915050565b60006116eb82611a62565b6116f58185611ac7565b9350611705818560208601611bc1565b61170e81611ccd565b840191505092915050565b6000611726601483611ad8565b915061173182611cde565b602082019050919050565b6000611749601183611ad8565b915061175482611d07565b602082019050919050565b600061176c603283611ad8565b915061177782611d30565b604082019050919050565b600061178f601683611ad8565b915061179a82611d7f565b602082019050919050565b60006117b2602183611ad8565b91506117bd82611da8565b604082019050919050565b60006117d5600f83611ad8565b91506117e082611df7565b602082019050919050565b60006101008301600083015161180460008601826118fe565b50602083015161181760208601826115a0565b506040830151848203604086015261182f82826116e0565b9150506060830151848203606086015261184982826116e0565b915050608083015161185e60808601826118fe565b5060a083015161187160a08601826118fe565b5060c083015161188460c08601826118fe565b5060e083015184820360e086015261189c8282611682565b9150508091505092915050565b6080820160008201516118bf60008501826118fe565b5060208201516118d260208501826118fe565b5060408201516118e560408501826115a0565b5060608201516118f860608501826118fe565b50505050565b61190781611bb7565b82525050565b6000602082019050818103600083015261192781846115af565b905092915050565b600060208201905081810360008301526119498184611624565b905092915050565b6000602082019050818103600083015261196a81611719565b9050919050565b6000602082019050818103600083015261198a8161173c565b9050919050565b600060208201905081810360008301526119aa8161175f565b9050919050565b600060208201905081810360008301526119ca81611782565b9050919050565b600060208201905081810360008301526119ea816117a5565b9050919050565b60006020820190508181036000830152611a0a816117c8565b9050919050565b6000819050602082019050919050565b6000819050602082019050919050565b6000819050602082019050919050565b600081519050919050565b600081519050919050565b600081519050919050565b600081519050919050565b6000602082019050919050565b6000602082019050919050565b6000602082019050919050565b600082825260208201905092915050565b600082825260208201905092915050565b600082825260208201905092915050565b600082825260208201905092915050565b600082825260208201905092915050565b6000611af482611bb7565b9150611aff83611bb7565b9250827fffffffffffffffffffffffffffffffffffffffffffffffffffffffffffffffff03821115611b3457611b33611c6f565b5b828201905092915050565b6000611b4a82611bb7565b9150611b5583611bb7565b925082821015611b6857611b67611c6f565b5b828203905092915050565b6000611b7e82611b97565b9050919050565b6000611b9082611b97565b9050919050565b600073ffffffffffffffffffffffffffffffffffffffff82169050919050565b6000819050919050565b60005b83811015611bdf578082015181840152602081019050611bc4565b83811115611bee576000848401525b50505050565b60006002820490506001821680611c0c57607f821691505b60208210811415611c2057611c1f611c9e565b5b50919050565b6000611c3182611bb7565b91507fffffffffffffffffffffffffffffffffffffffffffffffffffffffffffffffff821415611c6457611c63611c6f565b5b600182019050919050565b7f4e487b7100000000000000000000000000000000000000000000000000000000600052601160045260246000fd5b7f4e487b7100000000000000000000000000000000000000000000000000000000600052602260045260246000fd5b6000601f19601f8301169050919050565b7f41756374696f6e207374696c6c20616374697665000000000000000000000000600082015250565b7f5072696365206d757374206265203e2030000000000000000000000000000000600082015250565b7f4f66666572206d757374203e3d20746f206d696e696d756d507269636520616e60008201527f64203e207468652062657374206f666665720000000000000000000000000000602082015250565b7f41756374696f6e20646f6573206e6f7420657869737400000000000000000000600082015250565b7f4475726174696f6e206c6173742077697468696e203120746f2031302064617960008201527f7300000000000000000000000000000000000000000000000000000000000000602082015250565b7f41756374696f6e20657870697265640000000000000000000000000000000000600082015250565b611e2981611b73565b8114611e3457600080fd5b50565b611e4081611bb7565b8114611e4b57600080fd5b5056fea2646970667358221220082be35018c4e73f70c4219382c4036b576d5060d44f3dca8cfbe0fbce71489064736f6c63430008010033",
  "immutableReferences": {},
  "source": "// SPDX-License-Identifier: UNLICENSED\npragma solidity ^0.8.1;\n\ncontract Ebay {\n    struct Auction {\n        uint256 id;\n        address payable seller;\n        string auctionName;\n        string description;\n        uint256 minimumPrice;\n        uint256 endDate;\n        uint256 bestOfferId;\n        uint256[] offerIds;\n    }\n\n    struct Offer {\n        uint256 id;\n        uint256 auctionId;\n        address payable buyer;\n        uint256 price;\n    }\n\n    mapping(uint256 => Auction) private auctions;\n    mapping(uint256 => Offer) private offers;\n    mapping(address => uint256[]) private userAuctions;\n    mapping(address => uint256[]) private userOffers;\n    uint256 private nextAuctionId = 1;\n    uint256 private nextOfferId = 1;\n\n    function createAuction(\n        string calldata _name,\n        string calldata _description,\n        uint256 _minimumPrice,\n        uint256 _duration\n    ) external {\n        require(_minimumPrice > 0, \"Price must be > 0\");\n        require(\n            _duration > 86400 && _duration < 864000,\n            \"Duration last within 1 to 10 days\"\n        );\n        // Define empty array\n        uint256[] memory offerIds = new uint256[](0);\n        auctions[nextAuctionId] = Auction(\n            nextAuctionId,\n            payable(msg.sender),\n            _name,\n            _description,\n            _minimumPrice,\n            block.timestamp + _duration,\n            0,\n            offerIds\n        );\n        userAuctions[msg.sender].push(nextAuctionId);\n        nextAuctionId++;\n    }\n\n    function createOffer(uint256 _auctionId)\n        external\n        payable\n        auctionExists(_auctionId)\n    {\n        // Pointer for auction\n        Auction storage auction = auctions[_auctionId];\n        // Pointer for offer\n        Offer storage bestOffer = offers[auction.bestOfferId];\n        require(block.timestamp < auction.endDate, \"Auction expired\");\n        require(\n            msg.value >= auction.minimumPrice && msg.value > bestOffer.price,\n            \"Offer must >= to minimumPrice and > the best offer\"\n        );\n        auction.bestOfferId = nextOfferId;\n        auction.offerIds.push(nextOfferId);\n        offers[nextOfferId] = Offer(\n            nextOfferId,\n            nextAuctionId,\n            payable(msg.sender),\n            msg.value\n        );\n        userOffers[msg.sender].push(nextOfferId);\n        nextOfferId++;\n    }\n\n    function trade(uint256 _auctionId) external auctionExists(_auctionId) {\n        // Pointer for auction\n        Auction storage auction = auctions[_auctionId];\n        // Pointer for offer\n        Offer storage bestOffer = offers[auction.bestOfferId];\n        require(block.timestamp > auction.endDate, \"Auction still active\");\n        for (uint256 i = 0; i < auction.offerIds.length; i++) {\n            uint256 offerId = auction.offerIds[i];\n            if (offerId != auction.bestOfferId) {\n                Offer storage offer = offers[offerId];\n                offer.buyer.transfer(offer.price);\n            }\n        }\n        auction.seller.transfer(bestOffer.price);\n    }\n\n    function getAuctions() external view returns (Auction[] memory) {\n        Auction[] memory _auctions = new Auction[](nextAuctionId - 1);\n        for (uint256 i = 1; i < nextAuctionId + 1; i++) {\n            _auctions[i - 1] = auctions[i];\n        }\n        return _auctions;\n    }\n\n    function getUserAuctions(address _user)\n        external\n        view\n        returns (Auction[] memory)\n    {\n        uint256[] storage userAuctionIds = userAuctions[_user];\n        Auction[] memory _auctions = new Auction[](userAuctionIds.length);\n        for (uint256 i = 0; i < userAuctionIds.length; i++) {\n            uint256 auctionId = userAuctionIds[i];\n            _auctions[i] = auctions[auctionId];\n        }\n        return _auctions;\n    }\n\n    function getUserOffers(address _user)\n        external\n        view\n        returns (Offer[] memory)\n    {\n        uint256[] storage userOfferIds = userOffers[_user];\n        Offer[] memory _offers = new Offer[](userOfferIds.length);\n        for (uint256 i = 0; i < userOfferIds.length; i++) {\n            uint256 offerId = userOfferIds[i];\n            _offers[i] = offers[offerId];\n        }\n        return _offers;\n    }\n\n    modifier auctionExists(uint256 _auctionId) {\n        require(\n            _auctionId > 0 && _auctionId < nextAuctionId,\n            \"Auction does not exist\"\n        );\n        _;\n    }\n}\n",
  "sourcePath": "/Users/heyyehudes/Documents/Dapp_30/Ebay/contracts/Ebay.sol",
  "compiler": {
    "name": "solc",
    "version": "0.8.1+commit.df193b15.Emscripten.clang"
  },
  "schemaVersion": "3.3.1",
  "updatedAt": "2021-05-12T00:29:48.555Z",
  "networkType": "ethereum",
  "devdoc": {
    "kind": "dev",
    "methods": {},
    "version": 1
  },
  "userdoc": {
    "kind": "user",
    "methods": {},
    "version": 1
  }
}