{
  "contractName": "Ebay",
  "abi": [
    {
      "anonymous": false,
      "inputs": [
        {
          "indexed": false,
          "internalType": "string",
          "name": "name",
          "type": "string"
        },
        {
          "indexed": false,
          "internalType": "string",
          "name": "description",
          "type": "string"
        },
        {
          "indexed": false,
          "internalType": "uint256",
          "name": "minPrice",
          "type": "uint256"
        },
        {
          "indexed": false,
          "internalType": "uint256",
          "name": "duration",
          "type": "uint256"
        }
      ],
      "name": "AuctionCreated",
      "type": "event"
    },
    {
      "anonymous": false,
      "inputs": [
        {
          "indexed": false,
          "internalType": "string",
          "name": "name",
          "type": "string"
        },
        {
          "indexed": false,
          "internalType": "string",
          "name": "description",
          "type": "string"
        },
        {
          "indexed": false,
          "internalType": "uint256",
          "name": "price",
          "type": "uint256"
        },
        {
          "indexed": false,
          "internalType": "uint256",
          "name": "bestOfferId",
          "type": "uint256"
        }
      ],
      "name": "AuctionEnded",
      "type": "event"
    },
    {
      "anonymous": false,
      "inputs": [
        {
          "indexed": false,
          "internalType": "uint256",
          "name": "auctionId",
          "type": "uint256"
        },
        {
          "indexed": false,
          "internalType": "address",
          "name": "buyer",
          "type": "address"
        },
        {
          "indexed": false,
          "internalType": "uint256",
          "name": "price",
          "type": "uint256"
        }
      ],
      "name": "NewOffer",
      "type": "event"
    },
    {
      "inputs": [
        {
          "internalType": "string",
          "name": "_name",
          "type": "string"
        },
        {
          "internalType": "string",
          "name": "_description",
          "type": "string"
        },
        {
          "internalType": "uint256",
          "name": "_minimumPrice",
          "type": "uint256"
        },
        {
          "internalType": "uint256",
          "name": "_duration",
          "type": "uint256"
        }
      ],
      "name": "createAuction",
      "outputs": [],
      "stateMutability": "nonpayable",
      "type": "function"
    },
    {
      "inputs": [
        {
          "internalType": "uint256",
          "name": "_auctionId",
          "type": "uint256"
        }
      ],
      "name": "createOffer",
      "outputs": [],
      "stateMutability": "payable",
      "type": "function",
      "payable": true
    },
    {
      "inputs": [
        {
          "internalType": "uint256",
          "name": "_auctionId",
          "type": "uint256"
        }
      ],
      "name": "trade",
      "outputs": [],
      "stateMutability": "nonpayable",
      "type": "function"
    },
    {
      "inputs": [],
      "name": "getAuctions",
      "outputs": [
        {
          "components": [
            {
              "internalType": "uint256",
              "name": "id",
              "type": "uint256"
            },
            {
              "internalType": "address payable",
              "name": "seller",
              "type": "address"
            },
            {
              "internalType": "string",
              "name": "auctionName",
              "type": "string"
            },
            {
              "internalType": "string",
              "name": "description",
              "type": "string"
            },
            {
              "internalType": "uint256",
              "name": "minimumPrice",
              "type": "uint256"
            },
            {
              "internalType": "uint256",
              "name": "endDate",
              "type": "uint256"
            },
            {
              "internalType": "uint256",
              "name": "bestOfferId",
              "type": "uint256"
            },
            {
              "internalType": "uint256[]",
              "name": "offerIds",
              "type": "uint256[]"
            }
          ],
          "internalType": "struct Ebay.Auction[]",
          "name": "",
          "type": "tuple[]"
        }
      ],
      "stateMutability": "view",
      "type": "function",
      "constant": true
    },
    {
      "inputs": [
        {
          "internalType": "address",
          "name": "_user",
          "type": "address"
        }
      ],
      "name": "getUserAuctions",
      "outputs": [
        {
          "components": [
            {
              "internalType": "uint256",
              "name": "id",
              "type": "uint256"
            },
            {
              "internalType": "address payable",
              "name": "seller",
              "type": "address"
            },
            {
              "internalType": "string",
              "name": "auctionName",
              "type": "string"
            },
            {
              "internalType": "string",
              "name": "description",
              "type": "string"
            },
            {
              "internalType": "uint256",
              "name": "minimumPrice",
              "type": "uint256"
            },
            {
              "internalType": "uint256",
              "name": "endDate",
              "type": "uint256"
            },
            {
              "internalType": "uint256",
              "name": "bestOfferId",
              "type": "uint256"
            },
            {
              "internalType": "uint256[]",
              "name": "offerIds",
              "type": "uint256[]"
            }
          ],
          "internalType": "struct Ebay.Auction[]",
          "name": "",
          "type": "tuple[]"
        }
      ],
      "stateMutability": "view",
      "type": "function",
      "constant": true
    },
    {
      "inputs": [
        {
          "internalType": "address",
          "name": "_user",
          "type": "address"
        }
      ],
      "name": "getUserOffers",
      "outputs": [
        {
          "components": [
            {
              "internalType": "uint256",
              "name": "id",
              "type": "uint256"
            },
            {
              "internalType": "uint256",
              "name": "auctionId",
              "type": "uint256"
            },
            {
              "internalType": "address payable",
              "name": "buyer",
              "type": "address"
            },
            {
              "internalType": "uint256",
              "name": "price",
              "type": "uint256"
            }
          ],
          "internalType": "struct Ebay.Offer[]",
          "name": "",
          "type": "tuple[]"
        }
      ],
      "stateMutability": "view",
      "type": "function",
      "constant": true
    }
  ],
  "bytecode": "0x60806040526001600455600160055534801561001a57600080fd5b506121378061002a6000396000f3fe6080604052600436106100555760003560e01c806361e2db551461005a578063661d2c2c14610083578063a269993d146100c0578063d7c06919146100dc578063df1dd82614610107578063ff3ad0b414610130575b600080fd5b34801561006657600080fd5b50610081600480360381019061007c919061157b565b61016d565b005b34801561008f57600080fd5b506100aa60048036038101906100a59190611552565b610503565b6040516100b79190611add565b60405180910390f35b6100da60048036038101906100d59190611616565b610716565b005b3480156100e857600080fd5b506100f1610a01565b6040516100fe9190611abb565b60405180910390f35b34801561011357600080fd5b5061012e60048036038101906101299190611616565b610d2f565b005b34801561013c57600080fd5b5061015760048036038101906101529190611552565b610fbc565b6040516101649190611abb565b60405180910390f35b600082116101b0576040517f08c379a00000000000000000000000000000000000000000000000000000000081526004016101a790611bc9565b60405180910390fd5b62015180811180156101c45750620d2f0081105b610203576040517f08c379a00000000000000000000000000000000000000000000000000000000081526004016101fa90611be9565b60405180910390fd5b60008067ffffffffffffffff811115610245577f4e487b7100000000000000000000000000000000000000000000000000000000600052604160045260246000fd5b6040519080825280602002602001820160405280156102735781602001602082028036833780820191505090505b50905060405180610100016040528060045481526020013373ffffffffffffffffffffffffffffffffffffffff16815260200188888080601f016020809104026020016040519081016040528093929190818152602001838380828437600081840152601f19601f82011690508083019250505050505050815260200186868080601f016020809104026020016040519081016040528093929190818152602001838380828437600081840152601f19601f820116905080830192505050505050508152602001848152602001834261034c9190611d8d565b8152602001600081526020018281525060008060045481526020019081526020016000206000820151816000015560208201518160010160006101000a81548173ffffffffffffffffffffffffffffffffffffffff021916908373ffffffffffffffffffffffffffffffffffffffff16021790555060408201518160020190805190602001906103dd929190611355565b5060608201518160030190805190602001906103fa929190611355565b506080820151816004015560a0820151816005015560c0820151816006015560e08201518160070190805190602001906104359291906113db565b50905050600260003373ffffffffffffffffffffffffffffffffffffffff1673ffffffffffffffffffffffffffffffffffffffff16815260200190815260200160002060045490806001815401808255809150506001900390600052602060002001600090919091909150557fdd1a026bb6d18ba633c942a6b4718240829fd83c7cb3ddf1af04ca3b7dd67a628787878787876040516104da96959493929190611aff565b60405180910390a1600460008154809291906104f590611ed9565b919050555050505050505050565b60606000600360008473ffffffffffffffffffffffffffffffffffffffff1673ffffffffffffffffffffffffffffffffffffffff16815260200190815260200160002090506000818054905067ffffffffffffffff81111561058e577f4e487b7100000000000000000000000000000000000000000000000000000000600052604160045260246000fd5b6040519080825280602002602001820160405280156105c757816020015b6105b4611428565b8152602001906001900390816105ac5790505b50905060005b828054905081101561070b576000838281548110610614577f4e487b7100000000000000000000000000000000000000000000000000000000600052603260045260246000fd5b906000526020600020015490506001600082815260200190815260200160002060405180608001604052908160008201548152602001600182015481526020016002820160009054906101000a900473ffffffffffffffffffffffffffffffffffffffff1673ffffffffffffffffffffffffffffffffffffffff1673ffffffffffffffffffffffffffffffffffffffff1681526020016003820154815250508383815181106106ec577f4e487b7100000000000000000000000000000000000000000000000000000000600052603260045260246000fd5b602002602001018190525050808061070390611ed9565b9150506105cd565b508092505050919050565b80600081118015610728575060045481105b610767576040517f08c379a000000000000000000000000000000000000000000000000000000000815260040161075e90611c29565b60405180910390fd5b60008060008481526020019081526020016000209050600060016000836006015481526020019081526020016000209050816005015442106107de576040517f08c379a00000000000000000000000000000000000000000000000000000000081526004016107d590611c49565b60405180910390fd5b816004015434101580156107f55750806003015434115b610834576040517f08c379a000000000000000000000000000000000000000000000000000000000815260040161082b90611c09565b60405180910390fd5b60055482600601819055508160070160055490806001815401808255809150506001900390600052602060002001600090919091909150556040518060800160405280600554815260200160045481526020013373ffffffffffffffffffffffffffffffffffffffff16815260200134815250600160006005548152602001908152602001600020600082015181600001556020820151816001015560408201518160020160006101000a81548173ffffffffffffffffffffffffffffffffffffffff021916908373ffffffffffffffffffffffffffffffffffffffff16021790555060608201518160030155905050600360003373ffffffffffffffffffffffffffffffffffffffff1673ffffffffffffffffffffffffffffffffffffffff16815260200190815260200160002060055490806001815401808255809150506001900390600052602060002001600090919091909150557f807b4f3a2cbecd0aaf3901534108511941eb0791a301b39b3593e8e20a2c759d826000015433600160006005548152602001908152602001600020600301546040516109db93929190611c69565b60405180910390a1600560008154809291906109f690611ed9565b919050555050505050565b606060006001600454610a149190611de3565b67ffffffffffffffff811115610a53577f4e487b7100000000000000000000000000000000000000000000000000000000600052604160045260246000fd5b604051908082528060200260200182016040528015610a8c57816020015b610a79611466565b815260200190600190039081610a715790505b5090506000600190505b6001600454610aa59190611d8d565b811015610d275760008082815260200190815260200160002060405180610100016040529081600082015481526020016001820160009054906101000a900473ffffffffffffffffffffffffffffffffffffffff1673ffffffffffffffffffffffffffffffffffffffff1673ffffffffffffffffffffffffffffffffffffffff168152602001600282018054610b3a90611ea7565b80601f0160208091040260200160405190810160405280929190818152602001828054610b6690611ea7565b8015610bb35780601f10610b8857610100808354040283529160200191610bb3565b820191906000526020600020905b815481529060010190602001808311610b9657829003601f168201915b50505050508152602001600382018054610bcc90611ea7565b80601f0160208091040260200160405190810160405280929190818152602001828054610bf890611ea7565b8015610c455780601f10610c1a57610100808354040283529160200191610c45565b820191906000526020600020905b815481529060010190602001808311610c2857829003601f168201915b5050505050815260200160048201548152602001600582015481526020016006820154815260200160078201805480602002602001604051908101604052809291908181526020018280548015610cbb57602002820191906000526020600020905b815481526020019060010190808311610ca7575b50505050508152505082600183610cd29190611de3565b81518110610d09577f4e487b7100000000000000000000000000000000000000000000000000000000600052603260045260246000fd5b60200260200101819052508080610d1f90611ed9565b915050610a96565b508091505090565b80600081118015610d41575060045481105b610d80576040517f08c379a0000000000000000000000000000000000000000000000000000000008152600401610d7790611c29565b60405180910390fd5b6000806000848152602001908152602001600020905060006001600083600601548152602001908152602001600020905081600501544211610df7576040517f08c379a0000000000000000000000000000000000000000000000000000000008152600401610dee90611ba9565b60405180910390fd5b60005b8260070180549050811015610efb576000836007018281548110610e47577f4e487b7100000000000000000000000000000000000000000000000000000000600052603260045260246000fd5b9060005260206000200154905083600601548114610ee75760006001600083815260200190815260200160002090508060020160009054906101000a900473ffffffffffffffffffffffffffffffffffffffff1673ffffffffffffffffffffffffffffffffffffffff166108fc82600301549081150290604051600060405180830381858888f19350505050158015610ee4573d6000803e3d6000fd5b50505b508080610ef390611ed9565b915050610dfa565b508160010160009054906101000a900473ffffffffffffffffffffffffffffffffffffffff1673ffffffffffffffffffffffffffffffffffffffff166108fc82600301549081150290604051600060405180830381858888f19350505050158015610f6a573d6000803e3d6000fd5b507f4653f95301face95857b65c43b867e3c9e8445b99657808177c39a59faba2722826002018360030184600401548460000154604051610fae9493929190611b56565b60405180910390a150505050565b60606000600260008473ffffffffffffffffffffffffffffffffffffffff1673ffffffffffffffffffffffffffffffffffffffff16815260200190815260200160002090506000818054905067ffffffffffffffff811115611047577f4e487b7100000000000000000000000000000000000000000000000000000000600052604160045260246000fd5b60405190808252806020026020018201604052801561108057816020015b61106d611466565b8152602001906001900390816110655790505b50905060005b828054905081101561134a5760008382815481106110cd577f4e487b7100000000000000000000000000000000000000000000000000000000600052603260045260246000fd5b9060005260206000200154905060008082815260200190815260200160002060405180610100016040529081600082015481526020016001820160009054906101000a900473ffffffffffffffffffffffffffffffffffffffff1673ffffffffffffffffffffffffffffffffffffffff1673ffffffffffffffffffffffffffffffffffffffff16815260200160028201805461116890611ea7565b80601f016020809104026020016040519081016040528092919081815260200182805461119490611ea7565b80156111e15780601f106111b6576101008083540402835291602001916111e1565b820191906000526020600020905b8154815290600101906020018083116111c457829003601f168201915b505050505081526020016003820180546111fa90611ea7565b80601f016020809104026020016040519081016040528092919081815260200182805461122690611ea7565b80156112735780601f1061124857610100808354040283529160200191611273565b820191906000526020600020905b81548152906001019060200180831161125657829003601f168201915b50505050508152602001600482015481526020016005820154815260200160068201548152602001600782018054806020026020016040519081016040528092919081815260200182805480156112e957602002820191906000526020600020905b8154815260200190600101908083116112d5575b50505050508152505083838151811061132b577f4e487b7100000000000000000000000000000000000000000000000000000000600052603260045260246000fd5b602002602001018190525050808061134290611ed9565b915050611086565b508092505050919050565b82805461136190611ea7565b90600052602060002090601f01602090048101928261138357600085556113ca565b82601f1061139c57805160ff19168380011785556113ca565b828001600101855582156113ca579182015b828111156113c95782518255916020019190600101906113ae565b5b5090506113d791906114c1565b5090565b828054828255906000526020600020908101928215611417579160200282015b828111156114165782518255916020019190600101906113fb565b5b50905061142491906114c1565b5090565b60405180608001604052806000815260200160008152602001600073ffffffffffffffffffffffffffffffffffffffff168152602001600081525090565b60405180610100016040528060008152602001600073ffffffffffffffffffffffffffffffffffffffff1681526020016060815260200160608152602001600081526020016000815260200160008152602001606081525090565b5b808211156114da5760008160009055506001016114c2565b5090565b6000813590506114ed816120d3565b92915050565b60008083601f84011261150557600080fd5b8235905067ffffffffffffffff81111561151e57600080fd5b60208301915083600182028301111561153657600080fd5b9250929050565b60008135905061154c816120ea565b92915050565b60006020828403121561156457600080fd5b6000611572848285016114de565b91505092915050565b6000806000806000806080878903121561159457600080fd5b600087013567ffffffffffffffff8111156115ae57600080fd5b6115ba89828a016114f3565b9650965050602087013567ffffffffffffffff8111156115d957600080fd5b6115e589828a016114f3565b945094505060406115f889828a0161153d565b925050606061160989828a0161153d565b9150509295509295509295565b60006020828403121561162857600080fd5b60006116368482850161153d565b91505092915050565b600061164b838361198a565b905092915050565b600061165f8383611a48565b60808301905092915050565b60006116778383611a9d565b60208301905092915050565b61168c81611e29565b82525050565b61169b81611e17565b82525050565b60006116ac82611ce5565b6116b68185611d38565b9350836020820285016116c885611ca0565b8060005b8581101561170457848403895281516116e5858261163f565b94506116f083611d11565b925060208a019950506001810190506116cc565b50829750879550505050505092915050565b600061172182611cf0565b61172b8185611d49565b935061173683611cb0565b8060005b8381101561176757815161174e8882611653565b975061175983611d1e565b92505060018101905061173a565b5085935050505092915050565b600061177f82611cfb565b6117898185611d5a565b935061179483611cc0565b8060005b838110156117c55781516117ac888261166b565b97506117b783611d2b565b925050600181019050611798565b5085935050505092915050565b60006117de8385611d7c565b93506117eb838584611e65565b6117f483611f80565b840190509392505050565b600061180a82611d06565b6118148185611d6b565b9350611824818560208601611e74565b61182d81611f80565b840191505092915050565b6000815461184581611ea7565b61184f8186611d7c565b9450600182166000811461186a576001811461187c576118af565b60ff19831686526020860193506118af565b61188585611cd0565b60005b838110156118a757815481890152600182019150602081019050611888565b808801955050505b50505092915050565b60006118c5601483611d7c565b91506118d082611f91565b602082019050919050565b60006118e8601183611d7c565b91506118f382611fba565b602082019050919050565b600061190b602683611d7c565b915061191682611fe3565b604082019050919050565b600061192e603283611d7c565b915061193982612032565b604082019050919050565b6000611951601683611d7c565b915061195c82612081565b602082019050919050565b6000611974600f83611d7c565b915061197f826120aa565b602082019050919050565b6000610100830160008301516119a36000860182611a9d565b5060208301516119b66020860182611683565b50604083015184820360408601526119ce82826117ff565b915050606083015184820360608601526119e882826117ff565b91505060808301516119fd6080860182611a9d565b5060a0830151611a1060a0860182611a9d565b5060c0830151611a2360c0860182611a9d565b5060e083015184820360e0860152611a3b8282611774565b9150508091505092915050565b608082016000820151611a5e6000850182611a9d565b506020820151611a716020850182611a9d565b506040820151611a846040850182611683565b506060820151611a976060850182611a9d565b50505050565b611aa681611e5b565b82525050565b611ab581611e5b565b82525050565b60006020820190508181036000830152611ad581846116a1565b905092915050565b60006020820190508181036000830152611af78184611716565b905092915050565b60006080820190508181036000830152611b1a81888a6117d2565b90508181036020830152611b2f8186886117d2565b9050611b3e6040830185611aac565b611b4b6060830184611aac565b979650505050505050565b60006080820190508181036000830152611b708187611838565b90508181036020830152611b848186611838565b9050611b936040830185611aac565b611ba06060830184611aac565b95945050505050565b60006020820190508181036000830152611bc2816118b8565b9050919050565b60006020820190508181036000830152611be2816118db565b9050919050565b60006020820190508181036000830152611c02816118fe565b9050919050565b60006020820190508181036000830152611c2281611921565b9050919050565b60006020820190508181036000830152611c4281611944565b9050919050565b60006020820190508181036000830152611c6281611967565b9050919050565b6000606082019050611c7e6000830186611aac565b611c8b6020830185611692565b611c986040830184611aac565b949350505050565b6000819050602082019050919050565b6000819050602082019050919050565b6000819050602082019050919050565b60008190508160005260206000209050919050565b600081519050919050565b600081519050919050565b600081519050919050565b600081519050919050565b6000602082019050919050565b6000602082019050919050565b6000602082019050919050565b600082825260208201905092915050565b600082825260208201905092915050565b600082825260208201905092915050565b600082825260208201905092915050565b600082825260208201905092915050565b6000611d9882611e5b565b9150611da383611e5b565b9250827fffffffffffffffffffffffffffffffffffffffffffffffffffffffffffffffff03821115611dd857611dd7611f22565b5b828201905092915050565b6000611dee82611e5b565b9150611df983611e5b565b925082821015611e0c57611e0b611f22565b5b828203905092915050565b6000611e2282611e3b565b9050919050565b6000611e3482611e3b565b9050919050565b600073ffffffffffffffffffffffffffffffffffffffff82169050919050565b6000819050919050565b82818337600083830152505050565b60005b83811015611e92578082015181840152602081019050611e77565b83811115611ea1576000848401525b50505050565b60006002820490506001821680611ebf57607f821691505b60208210811415611ed357611ed2611f51565b5b50919050565b6000611ee482611e5b565b91507fffffffffffffffffffffffffffffffffffffffffffffffffffffffffffffffff821415611f1757611f16611f22565b5b600182019050919050565b7f4e487b7100000000000000000000000000000000000000000000000000000000600052601160045260246000fd5b7f4e487b7100000000000000000000000000000000000000000000000000000000600052602260045260246000fd5b6000601f19601f8301169050919050565b7f41756374696f6e207374696c6c20616374697665000000000000000000000000600082015250565b7f5072696365206d757374206265203e2030000000000000000000000000000000600082015250565b7f4475726174696f6e206d757374206c6173742077697468696e203120746f203160008201527f3020646179730000000000000000000000000000000000000000000000000000602082015250565b7f4f66666572206d757374203e3d20746f206d696e696d756d507269636520616e60008201527f64203e207468652062657374206f666665720000000000000000000000000000602082015250565b7f41756374696f6e20646f6573206e6f7420657869737400000000000000000000600082015250565b7f41756374696f6e20657870697265640000000000000000000000000000000000600082015250565b6120dc81611e17565b81146120e757600080fd5b50565b6120f381611e5b565b81146120fe57600080fd5b5056fea2646970667358221220ae46108b189bdd2afa8d4e1d6f8c51fcc4023f53150d50d12b8049b22a5d048564736f6c63430008010033",
  "immutableReferences": {},
  "source": "// SPDX-License-Identifier: UNLICENSED\npragma solidity ^0.8.1;\n\ncontract Ebay {\n    struct Auction {\n        uint256 id;\n        address payable seller;\n        string auctionName;\n        string description;\n        uint256 minimumPrice;\n        uint256 endDate;\n        uint256 bestOfferId;\n        uint256[] offerIds;\n    }\n\n    struct Offer {\n        uint256 id;\n        uint256 auctionId;\n        address payable buyer;\n        uint256 price;\n    }\n\n    mapping(uint256 => Auction) private auctions;\n    mapping(uint256 => Offer) private offers;\n    mapping(address => uint256[]) private userAuctions;\n    mapping(address => uint256[]) private userOffers;\n    uint256 private nextAuctionId = 1;\n    uint256 private nextOfferId = 1;\n\n    event AuctionCreated(\n        string name,\n        string description,\n        uint256 minPrice,\n        uint256 duration\n    );\n\n    event AuctionEnded(\n        string name,\n        string description,\n        uint256 price,\n        uint256 bestOfferId\n    );\n\n    event NewOffer(uint256 auctionId, address buyer, uint256 price);\n\n    function createAuction(\n        string calldata _name,\n        string calldata _description,\n        uint256 _minimumPrice,\n        uint256 _duration\n    ) external {\n        require(_minimumPrice > 0, \"Price must be > 0\");\n        require(\n            _duration > 86400 && _duration < 864000,\n            \"Duration must last within 1 to 10 days\"\n        );\n        // Define empty array\n        uint256[] memory offerIds = new uint256[](0);\n        auctions[nextAuctionId] = Auction(\n            nextAuctionId,\n            payable(msg.sender),\n            _name,\n            _description,\n            _minimumPrice,\n            block.timestamp + _duration,\n            0,\n            offerIds\n        );\n        userAuctions[msg.sender].push(nextAuctionId);\n        emit AuctionCreated(_name, _description, _minimumPrice, _duration);\n        nextAuctionId++;\n    }\n\n    function createOffer(uint256 _auctionId)\n        external\n        payable\n        auctionExists(_auctionId)\n    {\n        // Pointer for auction\n        Auction storage auction = auctions[_auctionId];\n        // Pointer for offer\n        Offer storage bestOffer = offers[auction.bestOfferId];\n        require(block.timestamp < auction.endDate, \"Auction expired\");\n        require(\n            msg.value >= auction.minimumPrice && msg.value > bestOffer.price,\n            \"Offer must >= to minimumPrice and > the best offer\"\n        );\n        auction.bestOfferId = nextOfferId;\n        auction.offerIds.push(nextOfferId);\n        offers[nextOfferId] = Offer(\n            nextOfferId,\n            nextAuctionId,\n            payable(msg.sender),\n            msg.value\n        );\n        userOffers[msg.sender].push(nextOfferId);\n        emit NewOffer(auction.id, msg.sender, offers[nextOfferId].price);\n        nextOfferId++;\n    }\n\n    function trade(uint256 _auctionId) external auctionExists(_auctionId) {\n        // Pointer for auction\n        Auction storage auction = auctions[_auctionId];\n        // Pointer for offer\n        Offer storage bestOffer = offers[auction.bestOfferId];\n        require(block.timestamp > auction.endDate, \"Auction still active\");\n        for (uint256 i = 0; i < auction.offerIds.length; i++) {\n            uint256 offerId = auction.offerIds[i];\n            if (offerId != auction.bestOfferId) {\n                Offer storage offer = offers[offerId];\n                offer.buyer.transfer(offer.price);\n            }\n        }\n        auction.seller.transfer(bestOffer.price);\n        emit AuctionEnded(\n            auction.auctionName,\n            auction.description,\n            auction.minimumPrice,\n            bestOffer.id\n        );\n    }\n\n    function getAuctions() external view returns (Auction[] memory) {\n        Auction[] memory _auctions = new Auction[](nextAuctionId - 1);\n        for (uint256 i = 1; i < nextAuctionId + 1; i++) {\n            _auctions[i - 1] = auctions[i];\n        }\n        return _auctions;\n    }\n\n    function getUserAuctions(address _user)\n        external\n        view\n        returns (Auction[] memory)\n    {\n        uint256[] storage userAuctionIds = userAuctions[_user];\n        Auction[] memory _auctions = new Auction[](userAuctionIds.length);\n        for (uint256 i = 0; i < userAuctionIds.length; i++) {\n            uint256 auctionId = userAuctionIds[i];\n            _auctions[i] = auctions[auctionId];\n        }\n        return _auctions;\n    }\n\n    function getUserOffers(address _user)\n        external\n        view\n        returns (Offer[] memory)\n    {\n        uint256[] storage userOfferIds = userOffers[_user];\n        Offer[] memory _offers = new Offer[](userOfferIds.length);\n        for (uint256 i = 0; i < userOfferIds.length; i++) {\n            uint256 offerId = userOfferIds[i];\n            _offers[i] = offers[offerId];\n        }\n        return _offers;\n    }\n\n    modifier auctionExists(uint256 _auctionId) {\n        require(\n            _auctionId > 0 && _auctionId < nextAuctionId,\n            \"Auction does not exist\"\n        );\n        _;\n    }\n}\n",
  "sourcePath": "/Users/heyyehudes/Documents/Dapp_30/Ebay/contracts/Ebay.sol",
  "compiler": {
    "name": "solc",
    "version": "0.8.1+commit.df193b15.Emscripten.clang"
  },
  "schemaVersion": "3.3.1",
  "updatedAt": "2021-05-12T03:45:12.374Z",
  "networkType": "ethereum",
  "devdoc": {
    "kind": "dev",
    "methods": {},
    "version": 1
  },
  "userdoc": {
    "kind": "user",
    "methods": {},
    "version": 1
  }
}